{
  "_format": "hh-sol-artifact-1",
  "contractName": "HodlBank",
  "sourceName": "contracts/HodlBank.sol",
  "abi": [
    {
      "inputs": [
        {
          "internalType": "address[]",
          "name": "_allowedTokens",
          "type": "address[]"
        }
      ],
      "stateMutability": "nonpayable",
      "type": "constructor"
    },
    {
      "anonymous": false,
      "inputs": [
        {
          "indexed": true,
          "internalType": "address",
          "name": "previousOwner",
          "type": "address"
        },
        {
          "indexed": true,
          "internalType": "address",
          "name": "newOwner",
          "type": "address"
        }
      ],
      "name": "OwnershipTransferred",
      "type": "event"
    },
    {
      "anonymous": false,
      "inputs": [
        {
          "indexed": false,
          "internalType": "uint256",
          "name": "_strategyId",
          "type": "uint256"
        }
      ],
      "name": "StrategyDeployed",
      "type": "event"
    },
    {
      "inputs": [
        {
          "internalType": "address",
          "name": "_tokenAddr",
          "type": "address"
        }
      ],
      "name": "addAllowedToken",
      "outputs": [],
      "stateMutability": "nonpayable",
      "type": "function"
    },
    {
      "inputs": [
        {
          "internalType": "uint256",
          "name": "",
          "type": "uint256"
        }
      ],
      "name": "allowedTokens",
      "outputs": [
        {
          "internalType": "address",
          "name": "",
          "type": "address"
        }
      ],
      "stateMutability": "view",
      "type": "function"
    },
    {
      "inputs": [
        {
          "internalType": "string",
          "name": "_name",
          "type": "string"
        },
        {
          "components": [
            {
              "internalType": "address",
              "name": "token",
              "type": "address"
            },
            {
              "internalType": "uint256",
              "name": "ratio",
              "type": "uint256"
            },
            {
              "internalType": "uint256",
              "name": "value",
              "type": "uint256"
            }
          ],
          "internalType": "struct HodlBank.StrategyRatio[]",
          "name": "_ratios",
          "type": "tuple[]"
        },
        {
          "internalType": "uint256",
          "name": "_depositTime",
          "type": "uint256"
        }
      ],
      "name": "deployStrategy",
      "outputs": [
        {
          "internalType": "uint256",
          "name": "strategyId",
          "type": "uint256"
        }
      ],
      "stateMutability": "payable",
      "type": "function"
    },
    {
      "inputs": [],
      "name": "getAllowedTokens",
      "outputs": [
        {
          "internalType": "address[]",
          "name": "",
          "type": "address[]"
        }
      ],
      "stateMutability": "view",
      "type": "function"
    },
    {
      "inputs": [],
      "name": "getStrategies",
      "outputs": [
        {
          "components": [
            {
              "internalType": "address",
              "name": "owner",
              "type": "address"
            },
            {
              "internalType": "string",
              "name": "name",
              "type": "string"
            },
            {
              "internalType": "uint256",
              "name": "strategyId",
              "type": "uint256"
            },
            {
              "internalType": "uint256",
              "name": "createdOn",
              "type": "uint256"
            },
            {
              "internalType": "uint256",
              "name": "dueOn",
              "type": "uint256"
            },
            {
              "internalType": "uint256",
              "name": "nextDividend",
              "type": "uint256"
            },
            {
              "internalType": "uint256",
              "name": "initialAmount",
              "type": "uint256"
            },
            {
              "internalType": "bool",
              "name": "active",
              "type": "bool"
            },
            {
              "components": [
                {
                  "internalType": "address",
                  "name": "token",
                  "type": "address"
                },
                {
                  "internalType": "uint256",
                  "name": "ratio",
                  "type": "uint256"
                },
                {
                  "internalType": "uint256",
                  "name": "value",
                  "type": "uint256"
                }
              ],
              "internalType": "struct HodlBank.StrategyRatio[]",
              "name": "ratios",
              "type": "tuple[]"
            }
          ],
          "internalType": "struct HodlBank.Strategy[]",
          "name": "",
          "type": "tuple[]"
        }
      ],
      "stateMutability": "view",
      "type": "function"
    },
    {
      "inputs": [
        {
          "internalType": "address",
          "name": "",
          "type": "address"
        }
      ],
      "name": "isAllowedToken",
      "outputs": [
        {
          "internalType": "bool",
          "name": "",
          "type": "bool"
        }
      ],
      "stateMutability": "view",
      "type": "function"
    },
    {
      "inputs": [
        {
          "internalType": "uint256",
          "name": "x",
          "type": "uint256"
        },
        {
          "internalType": "uint256",
          "name": "y",
          "type": "uint256"
        },
        {
          "internalType": "uint256",
          "name": "z",
          "type": "uint256"
        }
      ],
      "name": "mulDiv",
      "outputs": [
        {
          "internalType": "uint256",
          "name": "",
          "type": "uint256"
        }
      ],
      "stateMutability": "pure",
      "type": "function"
    },
    {
      "inputs": [],
      "name": "owner",
      "outputs": [
        {
          "internalType": "address",
          "name": "",
          "type": "address"
        }
      ],
      "stateMutability": "view",
      "type": "function"
    },
    {
      "inputs": [
        {
          "internalType": "address",
          "name": "",
          "type": "address"
        },
        {
          "internalType": "uint256",
          "name": "",
          "type": "uint256"
        }
      ],
      "name": "ownerToStrategy",
      "outputs": [
        {
          "internalType": "uint256",
          "name": "",
          "type": "uint256"
        }
      ],
      "stateMutability": "view",
      "type": "function"
    },
    {
      "inputs": [],
      "name": "quoter",
      "outputs": [
        {
          "internalType": "contract IQuoter",
          "name": "",
          "type": "address"
        }
      ],
      "stateMutability": "view",
      "type": "function"
    },
    {
      "inputs": [],
      "name": "renounceOwnership",
      "outputs": [],
      "stateMutability": "nonpayable",
      "type": "function"
    },
    {
      "inputs": [
        {
          "internalType": "uint256",
          "name": "",
          "type": "uint256"
        }
      ],
      "name": "strategies",
      "outputs": [
        {
          "internalType": "address",
          "name": "owner",
          "type": "address"
        },
        {
          "internalType": "string",
          "name": "name",
          "type": "string"
        },
        {
          "internalType": "uint256",
          "name": "strategyId",
          "type": "uint256"
        },
        {
          "internalType": "uint256",
          "name": "createdOn",
          "type": "uint256"
        },
        {
          "internalType": "uint256",
          "name": "dueOn",
          "type": "uint256"
        },
        {
          "internalType": "uint256",
          "name": "nextDividend",
          "type": "uint256"
        },
        {
          "internalType": "uint256",
          "name": "initialAmount",
          "type": "uint256"
        },
        {
          "internalType": "bool",
          "name": "active",
          "type": "bool"
        }
      ],
      "stateMutability": "view",
      "type": "function"
    },
    {
      "inputs": [
        {
          "internalType": "uint256",
          "name": "",
          "type": "uint256"
        }
      ],
      "name": "strategyToOwner",
      "outputs": [
        {
          "internalType": "address",
          "name": "",
          "type": "address"
        }
      ],
      "stateMutability": "view",
      "type": "function"
    },
    {
      "inputs": [
        {
          "internalType": "address",
          "name": "newOwner",
          "type": "address"
        }
      ],
      "name": "transferOwnership",
      "outputs": [],
      "stateMutability": "nonpayable",
      "type": "function"
    },
    {
      "inputs": [],
      "name": "uniswapRouter",
      "outputs": [
        {
          "internalType": "contract IUniswapRouter",
          "name": "",
          "type": "address"
        }
      ],
      "stateMutability": "view",
      "type": "function"
    },
    {
      "inputs": [
        {
          "internalType": "uint256",
          "name": "_strategyId",
          "type": "uint256"
        }
      ],
      "name": "withdrawStrategy",
      "outputs": [],
      "stateMutability": "nonpayable",
      "type": "function"
    }
  ],
  "bytecode": "0x60806040523480156200001157600080fd5b5060405162003a8438038062003a848339818101604052810190620000379190620003ae565b620000576200004b6200017b60201b60201c565b6200018360201b60201c565b60008151116200009e576040517f08c379a000000000000000000000000000000000000000000000000000000000815260040162000095906200041a565b60405180910390fd5b8060059080519060200190620000b692919062000247565b5060005b8151811015620001735760016004600084848151811062000104577f4e487b7100000000000000000000000000000000000000000000000000000000600052603260045260246000fd5b602002602001015173ffffffffffffffffffffffffffffffffffffffff1673ffffffffffffffffffffffffffffffffffffffff16815260200190815260200160002060006101000a81548160ff02191690831515021790555080806200016a9062000519565b915050620000ba565b505062000619565b600033905090565b60008060009054906101000a900473ffffffffffffffffffffffffffffffffffffffff169050816000806101000a81548173ffffffffffffffffffffffffffffffffffffffff021916908373ffffffffffffffffffffffffffffffffffffffff1602179055508173ffffffffffffffffffffffffffffffffffffffff168173ffffffffffffffffffffffffffffffffffffffff167f8be0079c531659141344cd1fd0a4f28419497f9722a3daafe3b4186f6b6457e060405160405180910390a35050565b828054828255906000526020600020908101928215620002c3579160200282015b82811115620002c25782518260006101000a81548173ffffffffffffffffffffffffffffffffffffffff021916908373ffffffffffffffffffffffffffffffffffffffff1602179055509160200191906001019062000268565b5b509050620002d29190620002d6565b5090565b5b80821115620002f1576000816000905550600101620002d7565b5090565b60006200030c620003068462000465565b6200043c565b905080838252602082019050828560208602820111156200032c57600080fd5b60005b858110156200036057816200034588826200036a565b8452602084019350602083019250506001810190506200032f565b5050509392505050565b6000815190506200037b81620005ff565b92915050565b600082601f8301126200039357600080fd5b8151620003a5848260208601620002f5565b91505092915050565b600060208284031215620003c157600080fd5b600082015167ffffffffffffffff811115620003dc57600080fd5b620003ea8482850162000381565b91505092915050565b60006200040260168362000494565b91506200040f82620005d6565b602082019050919050565b600060208201905081810360008301526200043581620003f3565b9050919050565b6000620004486200045b565b9050620004568282620004e3565b919050565b6000604051905090565b600067ffffffffffffffff82111562000483576200048262000596565b5b602082029050602081019050919050565b600082825260208201905092915050565b6000620004b282620004b9565b9050919050565b600073ffffffffffffffffffffffffffffffffffffffff82169050919050565b6000819050919050565b620004ee82620005c5565b810181811067ffffffffffffffff8211171562000510576200050f62000596565b5b80604052505050565b60006200052682620004d9565b91507fffffffffffffffffffffffffffffffffffffffffffffffffffffffffffffffff8214156200055c576200055b62000567565b5b600182019050919050565b7f4e487b7100000000000000000000000000000000000000000000000000000000600052601160045260246000fd5b7f4e487b7100000000000000000000000000000000000000000000000000000000600052604160045260246000fd5b6000601f19601f8301169050919050565b7f616c6c6f77656420746f6b656e73206973207a65726f00000000000000000000600082015250565b6200060a81620004a5565b81146200061657600080fd5b50565b61345b80620006296000396000f3fe6080604052600436106100f35760003560e01c8063971074de1161008a578063c6bbd5a711610059578063c6bbd5a714610331578063cbe230c31461035c578063d574ea3d14610399578063f2fde38b146103dd576100f3565b8063971074de1461024f578063aa9a09121461028c578063b49a60bb146102c9578063b5782ae4146102f4576100f3565b80635e5f2e26116100c65780635e5f2e26146101a5578063715018a6146101e2578063735de9f7146101f95780638da5cb5b14610224576100f3565b8063024ece89146100f857806328bada0d146101235780634178617f14610153578063596176161461017c575b600080fd5b34801561010457600080fd5b5061010d610406565b60405161011a9190612b67565b60405180910390f35b61013d60048036038101906101389190612416565b610494565b60405161014a9190612d68565b60405180910390f35b34801561015f57600080fd5b5061017a60048036038101906101759190612388565b6108b0565b005b34801561018857600080fd5b506101a3600480360381019061019e9190612495565b610992565b005b3480156101b157600080fd5b506101cc60048036038101906101c79190612495565b610d33565b6040516101d99190612a9e565b60405180910390f35b3480156101ee57600080fd5b506101f7610d72565b005b34801561020557600080fd5b5061020e610dfa565b60405161021b9190612be1565b60405180910390f35b34801561023057600080fd5b50610239610e12565b6040516102469190612a9e565b60405180910390f35b34801561025b57600080fd5b50610276600480360381019061027191906123b1565b610e3b565b6040516102839190612d68565b60405180910390f35b34801561029857600080fd5b506102b360048036038101906102ae91906124e7565b610e6c565b6040516102c09190612d68565b60405180910390f35b3480156102d557600080fd5b506102de610f30565b6040516102eb9190612b89565b60405180910390f35b34801561030057600080fd5b5061031b60048036038101906103169190612495565b6113eb565b6040516103289190612a9e565b60405180910390f35b34801561033d57600080fd5b5061034661141e565b6040516103539190612bc6565b60405180910390f35b34801561036857600080fd5b50610383600480360381019061037e9190612388565b611436565b6040516103909190612bab565b60405180910390f35b3480156103a557600080fd5b506103c060048036038101906103bb9190612495565b611456565b6040516103d4989796959493929190612ab9565b60405180910390f35b3480156103e957600080fd5b5061040460048036038101906103ff9190612388565b611553565b005b6060600580548060200260200160405190810160405280929190818152602001828054801561048a57602002820191906000526020600020905b8160009054906101000a900473ffffffffffffffffffffffffffffffffffffffff1673ffffffffffffffffffffffffffffffffffffffff1681526020019060010190808311610440575b5050505050905090565b60008082116104d8576040517f08c379a00000000000000000000000000000000000000000000000000000000081526004016104cf90612c6c565b60405180910390fd5b6104e18361164b565b610520576040517f08c379a000000000000000000000000000000000000000000000000000000000815260040161051790612c2c565b60405180910390fd5b61052983611713565b610568576040517f08c379a000000000000000000000000000000000000000000000000000000000815260040161055f90612ccc565b60405180910390fd5b6006600081548092919061057b90613102565b9190505590506000600160008381526020019081526020016000209050338160000160006101000a81548173ffffffffffffffffffffffffffffffffffffffff021916908373ffffffffffffffffffffffffffffffffffffffff160217905550818160020181905550848160010190805190602001906105fc9291906120ae565b5042816003018190555082426106129190612edd565b816004018190555062015180426106299190612edd565b816005018190555034816006018190555060018160070160006101000a81548160ff02191690831515021790555060005b845181101561077957600085828151811061069e577f4e487b7100000000000000000000000000000000000000000000000000000000600052603260045260246000fd5b6020026020010151905060006106ba3483602001516064610e6c565b905060006106cc836000015183611829565b9050808360400181815250508460080183908060018154018082558091505060019003906000526020600020906003020160009091909190915060008201518160000160006101000a81548173ffffffffffffffffffffffffffffffffffffffff021916908373ffffffffffffffffffffffffffffffffffffffff16021790555060208201518160010155604082015181600201555050505050808061077190613102565b91505061065a565b506107b96040518060400160405280600e81526020017f636f6e74726163742076616c756500000000000000000000000000000000000081525047611acd565b600260003373ffffffffffffffffffffffffffffffffffffffff1673ffffffffffffffffffffffffffffffffffffffff168152602001908152602001600020829080600181540180825580915050600190039060005260206000200160009091909190915055336003600084815260200190815260200160002060006101000a81548173ffffffffffffffffffffffffffffffffffffffff021916908373ffffffffffffffffffffffffffffffffffffffff1602179055507f38c77530fa61908b1a5919ee7aa9e58b2f3b84d7966e8bb4cbaf6993958b97ab826040516108a09190612d68565b60405180910390a1509392505050565b6108b8611b69565b73ffffffffffffffffffffffffffffffffffffffff166108d6610e12565b73ffffffffffffffffffffffffffffffffffffffff161461092c576040517f08c379a000000000000000000000000000000000000000000000000000000000815260040161092390612cec565b60405180910390fd5b6005819080600181540180825580915050600190039060005260206000200160009091909190916101000a81548173ffffffffffffffffffffffffffffffffffffffff021916908373ffffffffffffffffffffffffffffffffffffffff16021790555050565b803373ffffffffffffffffffffffffffffffffffffffff166003600083815260200190815260200160002060009054906101000a900473ffffffffffffffffffffffffffffffffffffffff1673ffffffffffffffffffffffffffffffffffffffff1614610a34576040517f08c379a0000000000000000000000000000000000000000000000000000000008152600401610a2b90612c8c565b60405180910390fd5b60006001600084815260200190815260200160002090506000428260040154101590506000610a6285611b71565b60005b8360080180549050811015610d2b576000846008018281548110610ab2577f4e487b7100000000000000000000000000000000000000000000000000000000600052603260045260246000fd5b90600052602060002090600302016040518060600160405290816000820160009054906101000a900473ffffffffffffffffffffffffffffffffffffffff1673ffffffffffffffffffffffffffffffffffffffff1673ffffffffffffffffffffffffffffffffffffffff168152602001600182015481526020016002820154815250509050610b4981600001518260400151611e8c565b8315610c0f57806000015173ffffffffffffffffffffffffffffffffffffffff1663a9059cbb8660000160009054906101000a900473ffffffffffffffffffffffffffffffffffffffff1683604001516040518363ffffffff1660e01b8152600401610bb6929190612b3e565b602060405180830381600087803b158015610bd057600080fd5b505af1158015610be4573d6000803e3d6000fd5b505050506040513d601f19601f82011682018060405250810190610c0891906123ed565b9250610cd7565b806000015173ffffffffffffffffffffffffffffffffffffffff1663a9059cbb8660000160009054906101000a900473ffffffffffffffffffffffffffffffffffffffff1660028460400151610c659190612f33565b6040518363ffffffff1660e01b8152600401610c82929190612b3e565b602060405180830381600087803b158015610c9c57600080fd5b505af1158015610cb0573d6000803e3d6000fd5b505050506040513d601f19601f82011682018060405250810190610cd491906123ed565b92505b82610d17576040517f08c379a0000000000000000000000000000000000000000000000000000000008152600401610d0e90612d0c565b60405180910390fd5b508080610d2390613102565b915050610a65565b505050505050565b60058181548110610d4357600080fd5b906000526020600020016000915054906101000a900473ffffffffffffffffffffffffffffffffffffffff1681565b610d7a611b69565b73ffffffffffffffffffffffffffffffffffffffff16610d98610e12565b73ffffffffffffffffffffffffffffffffffffffff1614610dee576040517f08c379a0000000000000000000000000000000000000000000000000000000008152600401610de590612cec565b60405180910390fd5b610df86000611f28565b565b73e592427a0aece92de3edee1f18e0157c0586156481565b60008060009054906101000a900473ffffffffffffffffffffffffffffffffffffffff16905090565b60026020528160005260406000208181548110610e5757600080fd5b90600052602060002001600091509150505481565b600081831415610e7e57839050610f29565b60008285610e8c9190612f33565b905060008386610e9c919061314b565b905060008486610eac9190612f33565b905060008587610ebc919061314b565b9050858184610ecb9190612f64565b610ed59190612f33565b8284610ee19190612f64565b8286610eed9190612f64565b888688610efa9190612f64565b610f049190612f64565b610f0e9190612edd565b610f189190612edd565b610f229190612edd565b9450505050505b9392505050565b60606000600260003373ffffffffffffffffffffffffffffffffffffffff1673ffffffffffffffffffffffffffffffffffffffff1681526020019081526020016000208054905067ffffffffffffffff811115610fb6577f4e487b7100000000000000000000000000000000000000000000000000000000600052604160045260246000fd5b604051908082528060200260200182016040528015610fef57816020015b610fdc612134565b815260200190600190039081610fd45790505b50905060005b600260003373ffffffffffffffffffffffffffffffffffffffff1673ffffffffffffffffffffffffffffffffffffffff168152602001908152602001600020805490508110156113e3576110c9600260003373ffffffffffffffffffffffffffffffffffffffff1673ffffffffffffffffffffffffffffffffffffffff16815260200190815260200160002082815481106110b9577f4e487b7100000000000000000000000000000000000000000000000000000000600052603260045260246000fd5b9060005260206000200154611fec565b600060016000600260003373ffffffffffffffffffffffffffffffffffffffff1673ffffffffffffffffffffffffffffffffffffffff1681526020019081526020016000208481548110611146577f4e487b7100000000000000000000000000000000000000000000000000000000600052603260045260246000fd5b906000526020600020015481526020019081526020016000209050600115158160070160009054906101000a900460ff16151514156113cf5780604051806101200160405290816000820160009054906101000a900473ffffffffffffffffffffffffffffffffffffffff1673ffffffffffffffffffffffffffffffffffffffff1673ffffffffffffffffffffffffffffffffffffffff1681526020016001820180546111f29061309f565b80601f016020809104026020016040519081016040528092919081815260200182805461121e9061309f565b801561126b5780601f106112405761010080835404028352916020019161126b565b820191906000526020600020905b81548152906001019060200180831161124e57829003601f168201915b5050505050815260200160028201548152602001600382015481526020016004820154815260200160058201548152602001600682015481526020016007820160009054906101000a900460ff1615151515815260200160088201805480602002602001604051908101604052809291908181526020016000905b8282101561138257838290600052602060002090600302016040518060600160405290816000820160009054906101000a900473ffffffffffffffffffffffffffffffffffffffff1673ffffffffffffffffffffffffffffffffffffffff1673ffffffffffffffffffffffffffffffffffffffff16815260200160018201548152602001600282015481525050815260200190600101906112e6565b50505050815250508383815181106113c3577f4e487b7100000000000000000000000000000000000000000000000000000000600052603260045260246000fd5b60200260200101819052505b5080806113db90613102565b915050610ff5565b508091505090565b60036020528060005260406000206000915054906101000a900473ffffffffffffffffffffffffffffffffffffffff1681565b73b27308f9f90d607463bb33ea1bebb41c27ce5ab681565b60046020528060005260406000206000915054906101000a900460ff1681565b60016020528060005260406000206000915090508060000160009054906101000a900473ffffffffffffffffffffffffffffffffffffffff169080600101805461149f9061309f565b80601f01602080910402602001604051908101604052809291908181526020018280546114cb9061309f565b80156115185780601f106114ed57610100808354040283529160200191611518565b820191906000526020600020905b8154815290600101906020018083116114fb57829003601f168201915b5050505050908060020154908060030154908060040154908060050154908060060154908060070160009054906101000a900460ff16905088565b61155b611b69565b73ffffffffffffffffffffffffffffffffffffffff16611579610e12565b73ffffffffffffffffffffffffffffffffffffffff16146115cf576040517f08c379a00000000000000000000000000000000000000000000000000000000081526004016115c690612cec565b60405180910390fd5b600073ffffffffffffffffffffffffffffffffffffffff168173ffffffffffffffffffffffffffffffffffffffff16141561163f576040517f08c379a000000000000000000000000000000000000000000000000000000000815260040161163690612c4c565b60405180910390fd5b61164881611f28565b50565b600080825111611690576040517f08c379a000000000000000000000000000000000000000000000000000000000815260040161168790612cac565b60405180910390fd5b600080600090505b8351811015611706578381815181106116da577f4e487b7100000000000000000000000000000000000000000000000000000000600052603260045260246000fd5b602002602001015160200151826116f19190612edd565b915080806116fe90613102565b915050611698565b5060648114915050919050565b600080825111611758576040517f08c379a000000000000000000000000000000000000000000000000000000000815260040161174f90612cac565b60405180910390fd5b60005b825181101561181e5760001515600460008584815181106117a5577f4e487b7100000000000000000000000000000000000000000000000000000000600052603260045260246000fd5b60200260200101516000015173ffffffffffffffffffffffffffffffffffffffff1673ffffffffffffffffffffffffffffffffffffffff16815260200190815260200160002060009054906101000a900460ff161515141561180b576000915050611824565b808061181690613102565b91505061175b565b50600190505b919050565b600080341161186d576040517f08c379a000000000000000000000000000000000000000000000000000000000815260040161186490612d2c565b60405180910390fd5b6000600f4261187c9190612edd565b9050600073c778417e063141139fce010982780140aa0cd5ab90506000610bb890506000600190506000806040518061010001604052808673ffffffffffffffffffffffffffffffffffffffff1681526020018a73ffffffffffffffffffffffffffffffffffffffff1681526020018562ffffff1681526020013073ffffffffffffffffffffffffffffffffffffffff1681526020018781526020018981526020018481526020018373ffffffffffffffffffffffffffffffffffffffff16815250905061197f6040518060400160405280600681526020017f616d6f756e74000000000000000000000000000000000000000000000000000081525089611acd565b73e592427a0aece92de3edee1f18e0157c0586156473ffffffffffffffffffffffffffffffffffffffff1663414bf38989836040518363ffffffff1660e01b81526004016119cd9190612d4c565b6020604051808303818588803b1580156119e657600080fd5b505af11580156119fa573d6000803e3d6000fd5b50505050506040513d601f19601f82011682018060405250810190611a1f91906124be565b9650611a2a87611fec565b60008973ffffffffffffffffffffffffffffffffffffffff166370a08231306040518263ffffffff1660e01b8152600401611a659190612a9e565b60206040518083038186803b158015611a7d57600080fd5b505afa158015611a91573d6000803e3d6000fd5b505050506040513d601f19601f82011682018060405250810190611ab591906124be565b9050611ac081611fec565b5050505050505092915050565b611b658282604051602401611ae3929190612bfc565b6040516020818303038152906040527f9710a9d0000000000000000000000000000000000000000000000000000000007bffffffffffffffffffffffffffffffffffffffffffffffffffffffff19166020820180517bffffffffffffffffffffffffffffffffffffffffffffffffffffffff8381831617835250505050612085565b5050565b600033905090565b803373ffffffffffffffffffffffffffffffffffffffff166003600083815260200190815260200160002060009054906101000a900473ffffffffffffffffffffffffffffffffffffffff1673ffffffffffffffffffffffffffffffffffffffff1614611c13576040517f08c379a0000000000000000000000000000000000000000000000000000000008152600401611c0a90612c8c565b60405180910390fd5b60006001600084815260200190815260200160002060070160006101000a81548160ff0219169083151502179055506001600260003373ffffffffffffffffffffffffffffffffffffffff1673ffffffffffffffffffffffffffffffffffffffff168152602001908152602001600020805490501415611cdd57600260003373ffffffffffffffffffffffffffffffffffffffff1673ffffffffffffffffffffffffffffffffffffffff1681526020019081526020016000206000611cd89190612198565b611e52565b60005b600260003373ffffffffffffffffffffffffffffffffffffffff1673ffffffffffffffffffffffffffffffffffffffff16815260200190815260200160002080549050811015611e505782600260003373ffffffffffffffffffffffffffffffffffffffff1673ffffffffffffffffffffffffffffffffffffffff1681526020019081526020016000208281548110611da2577f4e487b7100000000000000000000000000000000000000000000000000000000600052603260045260246000fd5b90600052602060002001541415611e3d57600260003373ffffffffffffffffffffffffffffffffffffffff1673ffffffffffffffffffffffffffffffffffffffff1681526020019081526020016000208181548110611e2a577f4e487b7100000000000000000000000000000000000000000000000000000000600052603260045260246000fd5b9060005260206000200160009055611e50565b8080611e4890613102565b915050611ce0565b505b6003600083815260200190815260200160002060006101000a81549073ffffffffffffffffffffffffffffffffffffffff02191690555050565b611f248282604051602401611ea2929190612b3e565b6040516020818303038152906040527f2243cfa3000000000000000000000000000000000000000000000000000000007bffffffffffffffffffffffffffffffffffffffffffffffffffffffff19166020820180517bffffffffffffffffffffffffffffffffffffffffffffffffffffffff8381831617835250505050612085565b5050565b60008060009054906101000a900473ffffffffffffffffffffffffffffffffffffffff169050816000806101000a81548173ffffffffffffffffffffffffffffffffffffffff021916908373ffffffffffffffffffffffffffffffffffffffff1602179055508173ffffffffffffffffffffffffffffffffffffffff168173ffffffffffffffffffffffffffffffffffffffff167f8be0079c531659141344cd1fd0a4f28419497f9722a3daafe3b4186f6b6457e060405160405180910390a35050565b612082816040516024016120009190612d68565b6040516020818303038152906040527ff5b1bba9000000000000000000000000000000000000000000000000000000007bffffffffffffffffffffffffffffffffffffffffffffffffffffffff19166020820180517bffffffffffffffffffffffffffffffffffffffffffffffffffffffff8381831617835250505050612085565b50565b60008151905060006a636f6e736f6c652e6c6f679050602083016000808483855afa5050505050565b8280546120ba9061309f565b90600052602060002090601f0160209004810192826120dc5760008555612123565b82601f106120f557805160ff1916838001178555612123565b82800160010185558215612123579182015b82811115612122578251825591602001919060010190612107565b5b50905061213091906121b9565b5090565b604051806101200160405280600073ffffffffffffffffffffffffffffffffffffffff168152602001606081526020016000815260200160008152602001600081526020016000815260200160008152602001600015158152602001606081525090565b50805460008255906000526020600020908101906121b691906121b9565b50565b5b808211156121d25760008160009055506001016121ba565b5090565b60006121e96121e484612da8565b612d83565b9050808382526020820190508285606086028201111561220857600080fd5b60005b85811015612238578161221e88826122fe565b84526020840193506060830192505060018101905061220b565b5050509392505050565b600061225561225084612dd4565b612d83565b90508281526020810184848401111561226d57600080fd5b61227884828561305d565b509392505050565b60008135905061228f816133e0565b92915050565b600082601f8301126122a657600080fd5b81356122b68482602086016121d6565b91505092915050565b6000815190506122ce816133f7565b92915050565b600082601f8301126122e557600080fd5b81356122f5848260208601612242565b91505092915050565b60006060828403121561231057600080fd5b61231a6060612d83565b9050600061232a84828501612280565b600083015250602061233e8482850161235e565b60208301525060406123528482850161235e565b60408301525092915050565b60008135905061236d8161340e565b92915050565b6000815190506123828161340e565b92915050565b60006020828403121561239a57600080fd5b60006123a884828501612280565b91505092915050565b600080604083850312156123c457600080fd5b60006123d285828601612280565b92505060206123e38582860161235e565b9150509250929050565b6000602082840312156123ff57600080fd5b600061240d848285016122bf565b91505092915050565b60008060006060848603121561242b57600080fd5b600084013567ffffffffffffffff81111561244557600080fd5b612451868287016122d4565b935050602084013567ffffffffffffffff81111561246e57600080fd5b61247a86828701612295565b925050604061248b8682870161235e565b9150509250925092565b6000602082840312156124a757600080fd5b60006124b58482850161235e565b91505092915050565b6000602082840312156124d057600080fd5b60006124de84828501612373565b91505092915050565b6000806000606084860312156124fc57600080fd5b600061250a8682870161235e565b935050602061251b8682870161235e565b925050604061252c8682870161235e565b9150509250925092565b6000612542838361257a565b60208301905092915050565b600061255a8383612954565b60608301905092915050565b60006125728383612996565b905092915050565b61258381612fbe565b82525050565b61259281612fbe565b82525050565b60006125a382612e35565b6125ad8185612e88565b93506125b883612e05565b8060005b838110156125e95781516125d08882612536565b97506125db83612e61565b9250506001810190506125bc565b5085935050505092915050565b600061260182612e40565b61260b8185612e99565b935061261683612e15565b8060005b8381101561264757815161262e888261254e565b975061263983612e6e565b92505060018101905061261a565b5085935050505092915050565b600061265f82612e4b565b6126698185612eaa565b93508360208202850161267b85612e25565b8060005b858110156126b757848403895281516126988582612566565b94506126a383612e7b565b925060208a0199505060018101905061267f565b50829750879550505050505092915050565b6126d281612fd0565b82525050565b6126e181612fd0565b82525050565b6126f081613015565b82525050565b6126ff81613039565b82525050565b600061271082612e56565b61271a8185612ebb565b935061272a81856020860161306c565b61273381613238565b840191505092915050565b600061274982612e56565b6127538185612ecc565b935061276381856020860161306c565b61276c81613238565b840191505092915050565b6000612784601883612ecc565b915061278f82613249565b602082019050919050565b60006127a7602683612ecc565b91506127b282613272565b604082019050919050565b60006127ca601d83612ecc565b91506127d5826132c1565b602082019050919050565b60006127ed601c83612ecc565b91506127f8826132ea565b602082019050919050565b6000612810601283612ecc565b915061281b82613313565b602082019050919050565b6000612833602083612ecc565b915061283e8261333c565b602082019050919050565b6000612856602083612ecc565b915061286182613365565b602082019050919050565b6000612879600f83612ecc565b91506128848261338e565b602082019050919050565b600061289c601a83612ecc565b91506128a7826133b7565b602082019050919050565b610100820160008201516128c9600085018261257a565b5060208201516128dc602085018261257a565b5060408201516128ef6040850182612a71565b506060820151612902606085018261257a565b5060808201516129156080850182612a80565b5060a082015161292860a0850182612a80565b5060c082015161293b60c0850182612a80565b5060e082015161294e60e0850182612a62565b50505050565b60608201600082015161296a600085018261257a565b50602082015161297d6020850182612a80565b5060408201516129906040850182612a80565b50505050565b6000610120830160008301516129af600086018261257a565b50602083015184820360208601526129c78282612705565b91505060408301516129dc6040860182612a80565b5060608301516129ef6060860182612a80565b506080830151612a026080860182612a80565b5060a0830151612a1560a0860182612a80565b5060c0830151612a2860c0860182612a80565b5060e0830151612a3b60e08601826126c9565b50610100830151848203610100860152612a5582826125f6565b9150508091505092915050565b612a6b81612fdc565b82525050565b612a7a81612ffc565b82525050565b612a898161300b565b82525050565b612a988161300b565b82525050565b6000602082019050612ab36000830184612589565b92915050565b600061010082019050612acf600083018b612589565b8181036020830152612ae1818a61273e565b9050612af06040830189612a8f565b612afd6060830188612a8f565b612b0a6080830187612a8f565b612b1760a0830186612a8f565b612b2460c0830185612a8f565b612b3160e08301846126d8565b9998505050505050505050565b6000604082019050612b536000830185612589565b612b606020830184612a8f565b9392505050565b60006020820190508181036000830152612b818184612598565b905092915050565b60006020820190508181036000830152612ba38184612654565b905092915050565b6000602082019050612bc060008301846126d8565b92915050565b6000602082019050612bdb60008301846126e7565b92915050565b6000602082019050612bf660008301846126f6565b92915050565b60006040820190508181036000830152612c16818561273e565b9050612c256020830184612a8f565b9392505050565b60006020820190508181036000830152612c4581612777565b9050919050565b60006020820190508181036000830152612c658161279a565b9050919050565b60006020820190508181036000830152612c85816127bd565b9050919050565b60006020820190508181036000830152612ca5816127e0565b9050919050565b60006020820190508181036000830152612cc581612803565b9050919050565b60006020820190508181036000830152612ce581612826565b9050919050565b60006020820190508181036000830152612d0581612849565b9050919050565b60006020820190508181036000830152612d258161286c565b9050919050565b60006020820190508181036000830152612d458161288f565b9050919050565b600061010082019050612d6260008301846128b2565b92915050565b6000602082019050612d7d6000830184612a8f565b92915050565b6000612d8d612d9e565b9050612d9982826130d1565b919050565b6000604051905090565b600067ffffffffffffffff821115612dc357612dc2613209565b5b602082029050602081019050919050565b600067ffffffffffffffff821115612def57612dee613209565b5b612df882613238565b9050602081019050919050565b6000819050602082019050919050565b6000819050602082019050919050565b6000819050602082019050919050565b600081519050919050565b600081519050919050565b600081519050919050565b600081519050919050565b6000602082019050919050565b6000602082019050919050565b6000602082019050919050565b600082825260208201905092915050565b600082825260208201905092915050565b600082825260208201905092915050565b600082825260208201905092915050565b600082825260208201905092915050565b6000612ee88261300b565b9150612ef38361300b565b9250827fffffffffffffffffffffffffffffffffffffffffffffffffffffffffffffffff03821115612f2857612f2761317c565b5b828201905092915050565b6000612f3e8261300b565b9150612f498361300b565b925082612f5957612f586131ab565b5b828204905092915050565b6000612f6f8261300b565b9150612f7a8361300b565b9250817fffffffffffffffffffffffffffffffffffffffffffffffffffffffffffffffff0483118215151615612fb357612fb261317c565b5b828202905092915050565b6000612fc982612fdc565b9050919050565b60008115159050919050565b600073ffffffffffffffffffffffffffffffffffffffff82169050919050565b600062ffffff82169050919050565b6000819050919050565b600061302082613027565b9050919050565b600061303282612fdc565b9050919050565b60006130448261304b565b9050919050565b600061305682612fdc565b9050919050565b82818337600083830152505050565b60005b8381101561308a57808201518184015260208101905061306f565b83811115613099576000848401525b50505050565b600060028204905060018216806130b757607f821691505b602082108114156130cb576130ca6131da565b5b50919050565b6130da82613238565b810181811067ffffffffffffffff821117156130f9576130f8613209565b5b80604052505050565b600061310d8261300b565b91507fffffffffffffffffffffffffffffffffffffffffffffffffffffffffffffffff8214156131405761313f61317c565b5b600182019050919050565b60006131568261300b565b91506131618361300b565b925082613171576131706131ab565b5b828206905092915050565b7f4e487b7100000000000000000000000000000000000000000000000000000000600052601160045260246000fd5b7f4e487b7100000000000000000000000000000000000000000000000000000000600052601260045260246000fd5b7f4e487b7100000000000000000000000000000000000000000000000000000000600052602260045260246000fd5b7f4e487b7100000000000000000000000000000000000000000000000000000000600052604160045260246000fd5b6000601f19601f8301169050919050565b7f726174696f73206e65656420746f20657175616c203130300000000000000000600082015250565b7f4f776e61626c653a206e6577206f776e657220697320746865207a65726f206160008201527f6464726573730000000000000000000000000000000000000000000000000000602082015250565b7f6465706f7369742074696d65206d75737420626520706f736974697665000000600082015250565b7f6f6e6c79207374726174656779206f776e65722063616e2066756e6400000000600082015250565b7f726174696f73206c656e67746820697320300000000000000000000000000000600082015250565b7f737472617420636f6e7461696e73206e6f7420616c6c6f77656420746f6b656e600082015250565b7f4f776e61626c653a2063616c6c6572206973206e6f7420746865206f776e6572600082015250565b7f7472616e73666572206661696c65640000000000000000000000000000000000600082015250565b7f4d7573742070617373206e6f6e20302045544820616d6f756e74000000000000600082015250565b6133e981612fbe565b81146133f457600080fd5b50565b61340081612fd0565b811461340b57600080fd5b50565b6134178161300b565b811461342257600080fd5b5056fea26469706673582212206c34677e64c320a303c7337cff45b4a5d96cb75ccaed93f085c9660baf7a085564736f6c63430008040033",
  "linkReferences": {},
  "deployedLinkReferences": {}
}