{
  "_format": "hh-sol-artifact-1",
  "contractName": "HodlBank",
  "sourceName": "contracts/HodlBank.sol",
  "abi": [
    {
      "inputs": [
        {
          "internalType": "address[]",
          "name": "_allowedTokens",
          "type": "address[]"
        }
      ],
      "stateMutability": "nonpayable",
      "type": "constructor"
    },
    {
      "anonymous": false,
      "inputs": [
        {
          "indexed": true,
          "internalType": "address",
          "name": "previousOwner",
          "type": "address"
        },
        {
          "indexed": true,
          "internalType": "address",
          "name": "newOwner",
          "type": "address"
        }
      ],
      "name": "OwnershipTransferred",
      "type": "event"
    },
    {
      "anonymous": false,
      "inputs": [
        {
          "indexed": false,
          "internalType": "uint256",
          "name": "_strategyId",
          "type": "uint256"
        }
      ],
      "name": "StrategyDeployed",
      "type": "event"
    },
    {
      "inputs": [
        {
          "internalType": "address",
          "name": "_tokenAddr",
          "type": "address"
        }
      ],
      "name": "addAllowedToken",
      "outputs": [],
      "stateMutability": "nonpayable",
      "type": "function"
    },
    {
      "inputs": [
        {
          "internalType": "uint256",
          "name": "",
          "type": "uint256"
        }
      ],
      "name": "allowedTokens",
      "outputs": [
        {
          "internalType": "address",
          "name": "",
          "type": "address"
        }
      ],
      "stateMutability": "view",
      "type": "function"
    },
    {
      "inputs": [
        {
          "internalType": "string",
          "name": "_name",
          "type": "string"
        },
        {
          "components": [
            {
              "internalType": "address",
              "name": "token",
              "type": "address"
            },
            {
              "internalType": "uint256",
              "name": "ratio",
              "type": "uint256"
            },
            {
              "internalType": "uint256",
              "name": "value",
              "type": "uint256"
            }
          ],
          "internalType": "struct HodlBank.StrategyRatio[]",
          "name": "_ratios",
          "type": "tuple[]"
        },
        {
          "internalType": "uint256",
          "name": "_depositTime",
          "type": "uint256"
        }
      ],
      "name": "deployStrategy",
      "outputs": [
        {
          "internalType": "uint256",
          "name": "strategyId",
          "type": "uint256"
        }
      ],
      "stateMutability": "payable",
      "type": "function"
    },
    {
      "inputs": [],
      "name": "getAllowedTokens",
      "outputs": [
        {
          "internalType": "address[]",
          "name": "",
          "type": "address[]"
        }
      ],
      "stateMutability": "view",
      "type": "function"
    },
    {
      "inputs": [],
      "name": "getStrategies",
      "outputs": [
        {
          "components": [
            {
              "internalType": "address",
              "name": "owner",
              "type": "address"
            },
            {
              "internalType": "string",
              "name": "name",
              "type": "string"
            },
            {
              "internalType": "uint256",
              "name": "strategyId",
              "type": "uint256"
            },
            {
              "internalType": "uint256",
              "name": "createdOn",
              "type": "uint256"
            },
            {
              "internalType": "uint256",
              "name": "dueOn",
              "type": "uint256"
            },
            {
              "internalType": "uint256",
              "name": "initialAmount",
              "type": "uint256"
            },
            {
              "internalType": "bool",
              "name": "active",
              "type": "bool"
            },
            {
              "components": [
                {
                  "internalType": "address",
                  "name": "token",
                  "type": "address"
                },
                {
                  "internalType": "uint256",
                  "name": "ratio",
                  "type": "uint256"
                },
                {
                  "internalType": "uint256",
                  "name": "value",
                  "type": "uint256"
                }
              ],
              "internalType": "struct HodlBank.StrategyRatio[]",
              "name": "ratios",
              "type": "tuple[]"
            }
          ],
          "internalType": "struct HodlBank.Strategy[]",
          "name": "",
          "type": "tuple[]"
        }
      ],
      "stateMutability": "view",
      "type": "function"
    },
    {
      "inputs": [],
      "name": "hbnkToken",
      "outputs": [
        {
          "internalType": "address",
          "name": "",
          "type": "address"
        }
      ],
      "stateMutability": "view",
      "type": "function"
    },
    {
      "inputs": [
        {
          "internalType": "address",
          "name": "",
          "type": "address"
        }
      ],
      "name": "isAllowedToken",
      "outputs": [
        {
          "internalType": "bool",
          "name": "",
          "type": "bool"
        }
      ],
      "stateMutability": "view",
      "type": "function"
    },
    {
      "inputs": [
        {
          "internalType": "uint256",
          "name": "x",
          "type": "uint256"
        },
        {
          "internalType": "uint256",
          "name": "y",
          "type": "uint256"
        },
        {
          "internalType": "uint256",
          "name": "z",
          "type": "uint256"
        }
      ],
      "name": "mulDiv",
      "outputs": [
        {
          "internalType": "uint256",
          "name": "",
          "type": "uint256"
        }
      ],
      "stateMutability": "pure",
      "type": "function"
    },
    {
      "inputs": [],
      "name": "owner",
      "outputs": [
        {
          "internalType": "address",
          "name": "",
          "type": "address"
        }
      ],
      "stateMutability": "view",
      "type": "function"
    },
    {
      "inputs": [
        {
          "internalType": "address",
          "name": "",
          "type": "address"
        },
        {
          "internalType": "uint256",
          "name": "",
          "type": "uint256"
        }
      ],
      "name": "ownerToStrategy",
      "outputs": [
        {
          "internalType": "uint256",
          "name": "",
          "type": "uint256"
        }
      ],
      "stateMutability": "view",
      "type": "function"
    },
    {
      "inputs": [],
      "name": "quoter",
      "outputs": [
        {
          "internalType": "contract IQuoter",
          "name": "",
          "type": "address"
        }
      ],
      "stateMutability": "view",
      "type": "function"
    },
    {
      "inputs": [],
      "name": "renounceOwnership",
      "outputs": [],
      "stateMutability": "nonpayable",
      "type": "function"
    },
    {
      "inputs": [
        {
          "internalType": "address",
          "name": "_tokenAddress",
          "type": "address"
        }
      ],
      "name": "setHbnkTokenAddress",
      "outputs": [],
      "stateMutability": "nonpayable",
      "type": "function"
    },
    {
      "inputs": [
        {
          "internalType": "uint256",
          "name": "",
          "type": "uint256"
        }
      ],
      "name": "strategies",
      "outputs": [
        {
          "internalType": "address",
          "name": "owner",
          "type": "address"
        },
        {
          "internalType": "string",
          "name": "name",
          "type": "string"
        },
        {
          "internalType": "uint256",
          "name": "strategyId",
          "type": "uint256"
        },
        {
          "internalType": "uint256",
          "name": "createdOn",
          "type": "uint256"
        },
        {
          "internalType": "uint256",
          "name": "dueOn",
          "type": "uint256"
        },
        {
          "internalType": "uint256",
          "name": "initialAmount",
          "type": "uint256"
        },
        {
          "internalType": "bool",
          "name": "active",
          "type": "bool"
        }
      ],
      "stateMutability": "view",
      "type": "function"
    },
    {
      "inputs": [
        {
          "internalType": "uint256",
          "name": "",
          "type": "uint256"
        }
      ],
      "name": "strategyToOwner",
      "outputs": [
        {
          "internalType": "address",
          "name": "",
          "type": "address"
        }
      ],
      "stateMutability": "view",
      "type": "function"
    },
    {
      "inputs": [
        {
          "internalType": "address",
          "name": "newOwner",
          "type": "address"
        }
      ],
      "name": "transferOwnership",
      "outputs": [],
      "stateMutability": "nonpayable",
      "type": "function"
    },
    {
      "inputs": [],
      "name": "uniswapRouter",
      "outputs": [
        {
          "internalType": "contract IUniswapRouter",
          "name": "",
          "type": "address"
        }
      ],
      "stateMutability": "view",
      "type": "function"
    },
    {
      "inputs": [
        {
          "internalType": "uint256",
          "name": "_strategyId",
          "type": "uint256"
        }
      ],
      "name": "withdrawStrategy",
      "outputs": [],
      "stateMutability": "nonpayable",
      "type": "function"
    }
  ],
  "bytecode": "0x60806040523480156200001157600080fd5b5060405162003f1838038062003f188339818101604052810190620000379190620003ae565b620000576200004b6200017b60201b60201c565b6200018360201b60201c565b60008151116200009e576040517f08c379a000000000000000000000000000000000000000000000000000000000815260040162000095906200041a565b60405180910390fd5b8060059080519060200190620000b692919062000247565b5060005b8151811015620001735760016004600084848151811062000104577f4e487b7100000000000000000000000000000000000000000000000000000000600052603260045260246000fd5b602002602001015173ffffffffffffffffffffffffffffffffffffffff1673ffffffffffffffffffffffffffffffffffffffff16815260200190815260200160002060006101000a81548160ff02191690831515021790555080806200016a9062000519565b915050620000ba565b505062000619565b600033905090565b60008060009054906101000a900473ffffffffffffffffffffffffffffffffffffffff169050816000806101000a81548173ffffffffffffffffffffffffffffffffffffffff021916908373ffffffffffffffffffffffffffffffffffffffff1602179055508173ffffffffffffffffffffffffffffffffffffffff168173ffffffffffffffffffffffffffffffffffffffff167f8be0079c531659141344cd1fd0a4f28419497f9722a3daafe3b4186f6b6457e060405160405180910390a35050565b828054828255906000526020600020908101928215620002c3579160200282015b82811115620002c25782518260006101000a81548173ffffffffffffffffffffffffffffffffffffffff021916908373ffffffffffffffffffffffffffffffffffffffff1602179055509160200191906001019062000268565b5b509050620002d29190620002d6565b5090565b5b80821115620002f1576000816000905550600101620002d7565b5090565b60006200030c620003068462000465565b6200043c565b905080838252602082019050828560208602820111156200032c57600080fd5b60005b858110156200036057816200034588826200036a565b8452602084019350602083019250506001810190506200032f565b5050509392505050565b6000815190506200037b81620005ff565b92915050565b600082601f8301126200039357600080fd5b8151620003a5848260208601620002f5565b91505092915050565b600060208284031215620003c157600080fd5b600082015167ffffffffffffffff811115620003dc57600080fd5b620003ea8482850162000381565b91505092915050565b60006200040260168362000494565b91506200040f82620005d6565b602082019050919050565b600060208201905081810360008301526200043581620003f3565b9050919050565b6000620004486200045b565b9050620004568282620004e3565b919050565b6000604051905090565b600067ffffffffffffffff82111562000483576200048262000596565b5b602082029050602081019050919050565b600082825260208201905092915050565b6000620004b282620004b9565b9050919050565b600073ffffffffffffffffffffffffffffffffffffffff82169050919050565b6000819050919050565b620004ee82620005c5565b810181811067ffffffffffffffff8211171562000510576200050f62000596565b5b80604052505050565b60006200052682620004d9565b91507fffffffffffffffffffffffffffffffffffffffffffffffffffffffffffffffff8214156200055c576200055b62000567565b5b600182019050919050565b7f4e487b7100000000000000000000000000000000000000000000000000000000600052601160045260246000fd5b7f4e487b7100000000000000000000000000000000000000000000000000000000600052604160045260246000fd5b6000601f19601f8301169050919050565b7f616c6c6f77656420746f6b656e73206973207a65726f00000000000000000000600082015250565b6200060a81620004a5565b81146200061657600080fd5b50565b6138ef80620006296000396000f3fe6080604052600436106101095760003560e01c8063971074de11610095578063c6bbd5a711610064578063c6bbd5a714610372578063cbe230c31461039d578063d4b39ad6146103da578063d574ea3d14610403578063f2fde38b1461044657610109565b8063971074de14610290578063aa9a0912146102cd578063b49a60bb1461030a578063b5782ae41461033557610109565b80635e5f2e26116100dc5780635e5f2e26146101bb578063715018a6146101f8578063735de9f71461020f57806384cee27a1461023a5780638da5cb5b1461026557610109565b8063024ece891461010e57806328bada0d146101395780634178617f146101695780635961761614610192575b600080fd5b34801561011a57600080fd5b5061012361046f565b6040516101309190612f35565b60405180910390f35b610153600480360381019061014e91906127c2565b6104fd565b6040516101609190613176565b60405180910390f35b34801561017557600080fd5b50610190600480360381019061018b9190612734565b610902565b005b34801561019e57600080fd5b506101b960048036038101906101b49190612841565b6109e4565b005b3480156101c757600080fd5b506101e260048036038101906101dd9190612841565b610db7565b6040516101ef9190612e7b565b60405180910390f35b34801561020457600080fd5b5061020d610df6565b005b34801561021b57600080fd5b50610224610e7e565b6040516102319190612faf565b60405180910390f35b34801561024657600080fd5b5061024f610e96565b60405161025c9190612e7b565b60405180910390f35b34801561027157600080fd5b5061027a610ebc565b6040516102879190612e7b565b60405180910390f35b34801561029c57600080fd5b506102b760048036038101906102b2919061275d565b610ee5565b6040516102c49190613176565b60405180910390f35b3480156102d957600080fd5b506102f460048036038101906102ef9190612893565b610f16565b6040516103019190613176565b60405180910390f35b34801561031657600080fd5b5061031f610fda565b60405161032c9190612f57565b60405180910390f35b34801561034157600080fd5b5061035c60048036038101906103579190612841565b61148b565b6040516103699190612e7b565b60405180910390f35b34801561037e57600080fd5b506103876114be565b6040516103949190612f94565b60405180910390f35b3480156103a957600080fd5b506103c460048036038101906103bf9190612734565b6114d6565b6040516103d19190612f79565b60405180910390f35b3480156103e657600080fd5b5061040160048036038101906103fc9190612734565b6114f6565b005b34801561040f57600080fd5b5061042a60048036038101906104259190612841565b6115b6565b60405161043d9796959493929190612e96565b60405180910390f35b34801561045257600080fd5b5061046d60048036038101906104689190612734565b6116ad565b005b606060058054806020026020016040519081016040528092919081815260200182805480156104f357602002820191906000526020600020905b8160009054906101000a900473ffffffffffffffffffffffffffffffffffffffff1673ffffffffffffffffffffffffffffffffffffffff16815260200190600101908083116104a9575b5050505050905090565b6000808211610541576040517f08c379a00000000000000000000000000000000000000000000000000000000081526004016105389061303a565b60405180910390fd5b61054a836117a5565b610589576040517f08c379a000000000000000000000000000000000000000000000000000000000815260040161058090612ffa565b60405180910390fd5b6105928361186d565b6105d1576040517f08c379a00000000000000000000000000000000000000000000000000000000081526004016105c89061309a565b60405180910390fd5b600760008154809291906105e490613544565b9190505590506000600160008381526020019081526020016000209050338160000160006101000a81548173ffffffffffffffffffffffffffffffffffffffff021916908373ffffffffffffffffffffffffffffffffffffffff16021790555081816002018190555084816001019080519060200190610665929190612461565b50428160030181905550824261067b91906132eb565b816004018190555034816005018190555060018160060160006101000a81548160ff02191690831515021790555060005b84518110156107cb5760008582815181106106f0577f4e487b7100000000000000000000000000000000000000000000000000000000600052603260045260246000fd5b60200260200101519050600061070c3483602001516064610f16565b9050600061071e836000015183611983565b9050808360400181815250508460070183908060018154018082558091505060019003906000526020600020906003020160009091909190915060008201518160000160006101000a81548173ffffffffffffffffffffffffffffffffffffffff021916908373ffffffffffffffffffffffffffffffffffffffff1602179055506020820151816001015560408201518160020155505050505080806107c390613544565b9150506106ac565b5061080b6040518060400160405280600e81526020017f636f6e74726163742076616c756500000000000000000000000000000000000081525047611c27565b600260003373ffffffffffffffffffffffffffffffffffffffff1673ffffffffffffffffffffffffffffffffffffffff168152602001908152602001600020829080600181540180825580915050600190039060005260206000200160009091909190915055336003600084815260200190815260200160002060006101000a81548173ffffffffffffffffffffffffffffffffffffffff021916908373ffffffffffffffffffffffffffffffffffffffff1602179055507f38c77530fa61908b1a5919ee7aa9e58b2f3b84d7966e8bb4cbaf6993958b97ab826040516108f29190613176565b60405180910390a1509392505050565b61090a611cc3565b73ffffffffffffffffffffffffffffffffffffffff16610928610ebc565b73ffffffffffffffffffffffffffffffffffffffff161461097e576040517f08c379a0000000000000000000000000000000000000000000000000000000008152600401610975906130ba565b60405180910390fd5b6005819080600181540180825580915050600190039060005260206000200160009091909190916101000a81548173ffffffffffffffffffffffffffffffffffffffff021916908373ffffffffffffffffffffffffffffffffffffffff16021790555050565b803373ffffffffffffffffffffffffffffffffffffffff166003600083815260200190815260200160002060009054906101000a900473ffffffffffffffffffffffffffffffffffffffff1673ffffffffffffffffffffffffffffffffffffffff1614610a86576040517f08c379a0000000000000000000000000000000000000000000000000000000008152600401610a7d9061305a565b60405180910390fd5b60006001600084815260200190815260200160002090506000428260040154111590506000610ab485611ccb565b610ac683600301548460040154611fe6565b5060005b8360070180549050811015610daf576000846007018281548110610b17577f4e487b7100000000000000000000000000000000000000000000000000000000600052603260045260246000fd5b90600052602060002090600302016040518060600160405290816000820160009054906101000a900473ffffffffffffffffffffffffffffffffffffffff1673ffffffffffffffffffffffffffffffffffffffff1673ffffffffffffffffffffffffffffffffffffffff168152602001600182015481526020016002820154815250509050610bae8160000151826040015161219a565b60008160400151905084610bd05760028260400151610bcd9190613341565b90505b80826000015173ffffffffffffffffffffffffffffffffffffffff166370a08231306040518263ffffffff1660e01b8152600401610c0e9190612e7b565b60206040518083038186803b158015610c2657600080fd5b505afa158015610c3a573d6000803e3d6000fd5b505050506040513d601f19601f82011682018060405250810190610c5e919061286a565b1015610c9f576040517f08c379a0000000000000000000000000000000000000000000000000000000008152600401610c96906130da565b60405180910390fd5b816000015173ffffffffffffffffffffffffffffffffffffffff1663a9059cbb8760000160009054906101000a900473ffffffffffffffffffffffffffffffffffffffff1684604001516040518363ffffffff1660e01b8152600401610d06929190612f0c565b602060405180830381600087803b158015610d2057600080fd5b505af1158015610d34573d6000803e3d6000fd5b505050506040513d601f19601f82011682018060405250810190610d589190612799565b935083610d9a576040517f08c379a0000000000000000000000000000000000000000000000000000000008152600401610d91906130fa565b60405180910390fd5b50508080610da790613544565b915050610aca565b505050505050565b60058181548110610dc757600080fd5b906000526020600020016000915054906101000a900473ffffffffffffffffffffffffffffffffffffffff1681565b610dfe611cc3565b73ffffffffffffffffffffffffffffffffffffffff16610e1c610ebc565b73ffffffffffffffffffffffffffffffffffffffff1614610e72576040517f08c379a0000000000000000000000000000000000000000000000000000000008152600401610e69906130ba565b60405180910390fd5b610e7c6000612236565b565b73e592427a0aece92de3edee1f18e0157c0586156481565b600660009054906101000a900473ffffffffffffffffffffffffffffffffffffffff1681565b60008060009054906101000a900473ffffffffffffffffffffffffffffffffffffffff16905090565b60026020528160005260406000208181548110610f0157600080fd5b90600052602060002001600091509150505481565b600081831415610f2857839050610fd3565b60008285610f369190613341565b905060008386610f46919061358d565b905060008486610f569190613341565b905060008587610f66919061358d565b9050858184610f759190613372565b610f7f9190613341565b8284610f8b9190613372565b8286610f979190613372565b888688610fa49190613372565b610fae9190613372565b610fb891906132eb565b610fc291906132eb565b610fcc91906132eb565b9450505050505b9392505050565b60606000600260003373ffffffffffffffffffffffffffffffffffffffff1673ffffffffffffffffffffffffffffffffffffffff1681526020019081526020016000208054905067ffffffffffffffff811115611060577f4e487b7100000000000000000000000000000000000000000000000000000000600052604160045260246000fd5b60405190808252806020026020018201604052801561109957816020015b6110866124e7565b81526020019060019003908161107e5790505b50905060005b600260003373ffffffffffffffffffffffffffffffffffffffff1673ffffffffffffffffffffffffffffffffffffffff1681526020019081526020016000208054905081101561148357611173600260003373ffffffffffffffffffffffffffffffffffffffff1673ffffffffffffffffffffffffffffffffffffffff1681526020019081526020016000208281548110611163577f4e487b7100000000000000000000000000000000000000000000000000000000600052603260045260246000fd5b90600052602060002001546122fa565b600060016000600260003373ffffffffffffffffffffffffffffffffffffffff1673ffffffffffffffffffffffffffffffffffffffff16815260200190815260200160002084815481106111f0577f4e487b7100000000000000000000000000000000000000000000000000000000600052603260045260246000fd5b906000526020600020015481526020019081526020016000209050600115158160060160009054906101000a900460ff161515141561146f5780604051806101000160405290816000820160009054906101000a900473ffffffffffffffffffffffffffffffffffffffff1673ffffffffffffffffffffffffffffffffffffffff1673ffffffffffffffffffffffffffffffffffffffff16815260200160018201805461129c906134e1565b80601f01602080910402602001604051908101604052809291908181526020018280546112c8906134e1565b80156113155780601f106112ea57610100808354040283529160200191611315565b820191906000526020600020905b8154815290600101906020018083116112f857829003601f168201915b50505050508152602001600282015481526020016003820154815260200160048201548152602001600582015481526020016006820160009054906101000a900460ff1615151515815260200160078201805480602002602001604051908101604052809291908181526020016000905b8282101561142257838290600052602060002090600302016040518060600160405290816000820160009054906101000a900473ffffffffffffffffffffffffffffffffffffffff1673ffffffffffffffffffffffffffffffffffffffff1673ffffffffffffffffffffffffffffffffffffffff1681526020016001820154815260200160028201548152505081526020019060010190611386565b5050505081525050838381518110611463577f4e487b7100000000000000000000000000000000000000000000000000000000600052603260045260246000fd5b60200260200101819052505b50808061147b90613544565b91505061109f565b508091505090565b60036020528060005260406000206000915054906101000a900473ffffffffffffffffffffffffffffffffffffffff1681565b73b27308f9f90d607463bb33ea1bebb41c27ce5ab681565b60046020528060005260406000206000915054906101000a900460ff1681565b6114fe611cc3565b73ffffffffffffffffffffffffffffffffffffffff1661151c610ebc565b73ffffffffffffffffffffffffffffffffffffffff1614611572576040517f08c379a0000000000000000000000000000000000000000000000000000000008152600401611569906130ba565b60405180910390fd5b80600660006101000a81548173ffffffffffffffffffffffffffffffffffffffff021916908373ffffffffffffffffffffffffffffffffffffffff16021790555050565b60016020528060005260406000206000915090508060000160009054906101000a900473ffffffffffffffffffffffffffffffffffffffff16908060010180546115ff906134e1565b80601f016020809104026020016040519081016040528092919081815260200182805461162b906134e1565b80156116785780601f1061164d57610100808354040283529160200191611678565b820191906000526020600020905b81548152906001019060200180831161165b57829003601f168201915b5050505050908060020154908060030154908060040154908060050154908060060160009054906101000a900460ff16905087565b6116b5611cc3565b73ffffffffffffffffffffffffffffffffffffffff166116d3610ebc565b73ffffffffffffffffffffffffffffffffffffffff1614611729576040517f08c379a0000000000000000000000000000000000000000000000000000000008152600401611720906130ba565b60405180910390fd5b600073ffffffffffffffffffffffffffffffffffffffff168173ffffffffffffffffffffffffffffffffffffffff161415611799576040517f08c379a00000000000000000000000000000000000000000000000000000000081526004016117909061301a565b60405180910390fd5b6117a281612236565b50565b6000808251116117ea576040517f08c379a00000000000000000000000000000000000000000000000000000000081526004016117e19061307a565b60405180910390fd5b600080600090505b835181101561186057838181518110611834577f4e487b7100000000000000000000000000000000000000000000000000000000600052603260045260246000fd5b6020026020010151602001518261184b91906132eb565b9150808061185890613544565b9150506117f2565b5060648114915050919050565b6000808251116118b2576040517f08c379a00000000000000000000000000000000000000000000000000000000081526004016118a99061307a565b60405180910390fd5b60005b82518110156119785760001515600460008584815181106118ff577f4e487b7100000000000000000000000000000000000000000000000000000000600052603260045260246000fd5b60200260200101516000015173ffffffffffffffffffffffffffffffffffffffff1673ffffffffffffffffffffffffffffffffffffffff16815260200190815260200160002060009054906101000a900460ff161515141561196557600091505061197e565b808061197090613544565b9150506118b5565b50600190505b919050565b60008034116119c7576040517f08c379a00000000000000000000000000000000000000000000000000000000081526004016119be9061311a565b60405180910390fd5b6000600f426119d691906132eb565b9050600073c778417e063141139fce010982780140aa0cd5ab90506000610bb890506000600190506000806040518061010001604052808673ffffffffffffffffffffffffffffffffffffffff1681526020018a73ffffffffffffffffffffffffffffffffffffffff1681526020018562ffffff1681526020013073ffffffffffffffffffffffffffffffffffffffff1681526020018781526020018981526020018481526020018373ffffffffffffffffffffffffffffffffffffffff168152509050611ad96040518060400160405280600681526020017f616d6f756e74000000000000000000000000000000000000000000000000000081525089611c27565b73e592427a0aece92de3edee1f18e0157c0586156473ffffffffffffffffffffffffffffffffffffffff1663414bf38989836040518363ffffffff1660e01b8152600401611b27919061315a565b6020604051808303818588803b158015611b4057600080fd5b505af1158015611b54573d6000803e3d6000fd5b50505050506040513d601f19601f82011682018060405250810190611b79919061286a565b9650611b84876122fa565b60008973ffffffffffffffffffffffffffffffffffffffff166370a08231306040518263ffffffff1660e01b8152600401611bbf9190612e7b565b60206040518083038186803b158015611bd757600080fd5b505afa158015611beb573d6000803e3d6000fd5b505050506040513d601f19601f82011682018060405250810190611c0f919061286a565b9050611c1a816122fa565b5050505050505092915050565b611cbf8282604051602401611c3d929190612fca565b6040516020818303038152906040527f9710a9d0000000000000000000000000000000000000000000000000000000007bffffffffffffffffffffffffffffffffffffffffffffffffffffffff19166020820180517bffffffffffffffffffffffffffffffffffffffffffffffffffffffff8381831617835250505050612393565b5050565b600033905090565b803373ffffffffffffffffffffffffffffffffffffffff166003600083815260200190815260200160002060009054906101000a900473ffffffffffffffffffffffffffffffffffffffff1673ffffffffffffffffffffffffffffffffffffffff1614611d6d576040517f08c379a0000000000000000000000000000000000000000000000000000000008152600401611d649061305a565b60405180910390fd5b60006001600084815260200190815260200160002060060160006101000a81548160ff0219169083151502179055506001600260003373ffffffffffffffffffffffffffffffffffffffff1673ffffffffffffffffffffffffffffffffffffffff168152602001908152602001600020805490501415611e3757600260003373ffffffffffffffffffffffffffffffffffffffff1673ffffffffffffffffffffffffffffffffffffffff1681526020019081526020016000206000611e329190612544565b611fac565b60005b600260003373ffffffffffffffffffffffffffffffffffffffff1673ffffffffffffffffffffffffffffffffffffffff16815260200190815260200160002080549050811015611faa5782600260003373ffffffffffffffffffffffffffffffffffffffff1673ffffffffffffffffffffffffffffffffffffffff1681526020019081526020016000208281548110611efc577f4e487b7100000000000000000000000000000000000000000000000000000000600052603260045260246000fd5b90600052602060002001541415611f9757600260003373ffffffffffffffffffffffffffffffffffffffff1673ffffffffffffffffffffffffffffffffffffffff1681526020019081526020016000208181548110611f84577f4e487b7100000000000000000000000000000000000000000000000000000000600052603260045260246000fd5b9060005260206000200160009055611faa565b8080611fa290613544565b915050611e3a565b505b6003600083815260200190815260200160002060006101000a81549073ffffffffffffffffffffffffffffffffffffffff02191690555050565b600080611ff384846123bc565b905080600660009054906101000a900473ffffffffffffffffffffffffffffffffffffffff1673ffffffffffffffffffffffffffffffffffffffff166370a08231306040518263ffffffff1660e01b81526004016120519190612e7b565b60206040518083038186803b15801561206957600080fd5b505afa15801561207d573d6000803e3d6000fd5b505050506040513d601f19601f820116820180604052508101906120a1919061286a565b10156120e2576040517f08c379a00000000000000000000000000000000000000000000000000000000081526004016120d9906130da565b60405180910390fd5b600660009054906101000a900473ffffffffffffffffffffffffffffffffffffffff1673ffffffffffffffffffffffffffffffffffffffff1663a9059cbb33836040518363ffffffff1660e01b815260040161213f929190612f0c565b602060405180830381600087803b15801561215957600080fd5b505af115801561216d573d6000803e3d6000fd5b505050506040513d601f19601f820116820180604052508101906121919190612799565b91505092915050565b61223282826040516024016121b0929190612f0c565b6040516020818303038152906040527f2243cfa3000000000000000000000000000000000000000000000000000000007bffffffffffffffffffffffffffffffffffffffffffffffffffffffff19166020820180517bffffffffffffffffffffffffffffffffffffffffffffffffffffffff8381831617835250505050612393565b5050565b60008060009054906101000a900473ffffffffffffffffffffffffffffffffffffffff169050816000806101000a81548173ffffffffffffffffffffffffffffffffffffffff021916908373ffffffffffffffffffffffffffffffffffffffff1602179055508173ffffffffffffffffffffffffffffffffffffffff168173ffffffffffffffffffffffffffffffffffffffff167f8be0079c531659141344cd1fd0a4f28419497f9722a3daafe3b4186f6b6457e060405160405180910390a35050565b6123908160405160240161230e9190613176565b6040516020818303038152906040527ff5b1bba9000000000000000000000000000000000000000000000000000000007bffffffffffffffffffffffffffffffffffffffffffffffffffffffff19166020820180517bffffffffffffffffffffffffffffffffffffffffffffffffffffffff8381831617835250505050612393565b50565b60008151905060006a636f6e736f6c652e6c6f679050602083016000808483855afa5050505050565b6000828211612400576040517f08c379a00000000000000000000000000000000000000000000000000000000081526004016123f79061313a565b60405180910390fd5b61241a838361240f91906133cc565b600162015180610f16565b905061245b6040518060400160405280600681526020017f726577617264000000000000000000000000000000000000000000000000000081525082611c27565b92915050565b82805461246d906134e1565b90600052602060002090601f01602090048101928261248f57600085556124d6565b82601f106124a857805160ff19168380011785556124d6565b828001600101855582156124d6579182015b828111156124d55782518255916020019190600101906124ba565b5b5090506124e39190612565565b5090565b604051806101000160405280600073ffffffffffffffffffffffffffffffffffffffff1681526020016060815260200160008152602001600081526020016000815260200160008152602001600015158152602001606081525090565b50805460008255906000526020600020908101906125629190612565565b50565b5b8082111561257e576000816000905550600101612566565b5090565b6000612595612590846131b6565b613191565b905080838252602082019050828560608602820111156125b457600080fd5b60005b858110156125e457816125ca88826126aa565b8452602084019350606083019250506001810190506125b7565b5050509392505050565b60006126016125fc846131e2565b613191565b90508281526020810184848401111561261957600080fd5b61262484828561349f565b509392505050565b60008135905061263b81613874565b92915050565b600082601f83011261265257600080fd5b8135612662848260208601612582565b91505092915050565b60008151905061267a8161388b565b92915050565b600082601f83011261269157600080fd5b81356126a18482602086016125ee565b91505092915050565b6000606082840312156126bc57600080fd5b6126c66060613191565b905060006126d68482850161262c565b60008301525060206126ea8482850161270a565b60208301525060406126fe8482850161270a565b60408301525092915050565b600081359050612719816138a2565b92915050565b60008151905061272e816138a2565b92915050565b60006020828403121561274657600080fd5b60006127548482850161262c565b91505092915050565b6000806040838503121561277057600080fd5b600061277e8582860161262c565b925050602061278f8582860161270a565b9150509250929050565b6000602082840312156127ab57600080fd5b60006127b98482850161266b565b91505092915050565b6000806000606084860312156127d757600080fd5b600084013567ffffffffffffffff8111156127f157600080fd5b6127fd86828701612680565b935050602084013567ffffffffffffffff81111561281a57600080fd5b61282686828701612641565b92505060406128378682870161270a565b9150509250925092565b60006020828403121561285357600080fd5b60006128618482850161270a565b91505092915050565b60006020828403121561287c57600080fd5b600061288a8482850161271f565b91505092915050565b6000806000606084860312156128a857600080fd5b60006128b68682870161270a565b93505060206128c78682870161270a565b92505060406128d88682870161270a565b9150509250925092565b60006128ee8383612926565b60208301905092915050565b60006129068383612d46565b60608301905092915050565b600061291e8383612d88565b905092915050565b61292f81613400565b82525050565b61293e81613400565b82525050565b600061294f82613243565b6129598185613296565b935061296483613213565b8060005b8381101561299557815161297c88826128e2565b97506129878361326f565b925050600181019050612968565b5085935050505092915050565b60006129ad8261324e565b6129b781856132a7565b93506129c283613223565b8060005b838110156129f35781516129da88826128fa565b97506129e58361327c565b9250506001810190506129c6565b5085935050505092915050565b6000612a0b82613259565b612a1581856132b8565b935083602082028501612a2785613233565b8060005b85811015612a635784840389528151612a448582612912565b9450612a4f83613289565b925060208a01995050600181019050612a2b565b50829750879550505050505092915050565b612a7e81613412565b82525050565b612a8d81613412565b82525050565b612a9c81613457565b82525050565b612aab8161347b565b82525050565b6000612abc82613264565b612ac681856132c9565b9350612ad68185602086016134ae565b612adf8161367a565b840191505092915050565b6000612af582613264565b612aff81856132da565b9350612b0f8185602086016134ae565b612b188161367a565b840191505092915050565b6000612b306018836132da565b9150612b3b8261368b565b602082019050919050565b6000612b536026836132da565b9150612b5e826136b4565b604082019050919050565b6000612b76601d836132da565b9150612b8182613703565b602082019050919050565b6000612b99601c836132da565b9150612ba48261372c565b602082019050919050565b6000612bbc6012836132da565b9150612bc782613755565b602082019050919050565b6000612bdf6020836132da565b9150612bea8261377e565b602082019050919050565b6000612c026020836132da565b9150612c0d826137a7565b602082019050919050565b6000612c25600c836132da565b9150612c30826137d0565b602082019050919050565b6000612c48600f836132da565b9150612c53826137f9565b602082019050919050565b6000612c6b601a836132da565b9150612c7682613822565b602082019050919050565b6000612c8e600f836132da565b9150612c998261384b565b602082019050919050565b61010082016000820151612cbb6000850182612926565b506020820151612cce6020850182612926565b506040820151612ce16040850182612e4e565b506060820151612cf46060850182612926565b506080820151612d076080850182612e5d565b5060a0820151612d1a60a0850182612e5d565b5060c0820151612d2d60c0850182612e5d565b5060e0820151612d4060e0850182612e3f565b50505050565b606082016000820151612d5c6000850182612926565b506020820151612d6f6020850182612e5d565b506040820151612d826040850182612e5d565b50505050565b600061010083016000830151612da16000860182612926565b5060208301518482036020860152612db98282612ab1565b9150506040830151612dce6040860182612e5d565b506060830151612de16060860182612e5d565b506080830151612df46080860182612e5d565b5060a0830151612e0760a0860182612e5d565b5060c0830151612e1a60c0860182612a75565b5060e083015184820360e0860152612e3282826129a2565b9150508091505092915050565b612e488161341e565b82525050565b612e578161343e565b82525050565b612e668161344d565b82525050565b612e758161344d565b82525050565b6000602082019050612e906000830184612935565b92915050565b600060e082019050612eab600083018a612935565b8181036020830152612ebd8189612aea565b9050612ecc6040830188612e6c565b612ed96060830187612e6c565b612ee66080830186612e6c565b612ef360a0830185612e6c565b612f0060c0830184612a84565b98975050505050505050565b6000604082019050612f216000830185612935565b612f2e6020830184612e6c565b9392505050565b60006020820190508181036000830152612f4f8184612944565b905092915050565b60006020820190508181036000830152612f718184612a00565b905092915050565b6000602082019050612f8e6000830184612a84565b92915050565b6000602082019050612fa96000830184612a93565b92915050565b6000602082019050612fc46000830184612aa2565b92915050565b60006040820190508181036000830152612fe48185612aea565b9050612ff36020830184612e6c565b9392505050565b6000602082019050818103600083015261301381612b23565b9050919050565b6000602082019050818103600083015261303381612b46565b9050919050565b6000602082019050818103600083015261305381612b69565b9050919050565b6000602082019050818103600083015261307381612b8c565b9050919050565b6000602082019050818103600083015261309381612baf565b9050919050565b600060208201905081810360008301526130b381612bd2565b9050919050565b600060208201905081810360008301526130d381612bf5565b9050919050565b600060208201905081810360008301526130f381612c18565b9050919050565b6000602082019050818103600083015261311381612c3b565b9050919050565b6000602082019050818103600083015261313381612c5e565b9050919050565b6000602082019050818103600083015261315381612c81565b9050919050565b6000610100820190506131706000830184612ca4565b92915050565b600060208201905061318b6000830184612e6c565b92915050565b600061319b6131ac565b90506131a78282613513565b919050565b6000604051905090565b600067ffffffffffffffff8211156131d1576131d061364b565b5b602082029050602081019050919050565b600067ffffffffffffffff8211156131fd576131fc61364b565b5b6132068261367a565b9050602081019050919050565b6000819050602082019050919050565b6000819050602082019050919050565b6000819050602082019050919050565b600081519050919050565b600081519050919050565b600081519050919050565b600081519050919050565b6000602082019050919050565b6000602082019050919050565b6000602082019050919050565b600082825260208201905092915050565b600082825260208201905092915050565b600082825260208201905092915050565b600082825260208201905092915050565b600082825260208201905092915050565b60006132f68261344d565b91506133018361344d565b9250827fffffffffffffffffffffffffffffffffffffffffffffffffffffffffffffffff03821115613336576133356135be565b5b828201905092915050565b600061334c8261344d565b91506133578361344d565b925082613367576133666135ed565b5b828204905092915050565b600061337d8261344d565b91506133888361344d565b9250817fffffffffffffffffffffffffffffffffffffffffffffffffffffffffffffffff04831182151516156133c1576133c06135be565b5b828202905092915050565b60006133d78261344d565b91506133e28361344d565b9250828210156133f5576133f46135be565b5b828203905092915050565b600061340b8261341e565b9050919050565b60008115159050919050565b600073ffffffffffffffffffffffffffffffffffffffff82169050919050565b600062ffffff82169050919050565b6000819050919050565b600061346282613469565b9050919050565b60006134748261341e565b9050919050565b60006134868261348d565b9050919050565b60006134988261341e565b9050919050565b82818337600083830152505050565b60005b838110156134cc5780820151818401526020810190506134b1565b838111156134db576000848401525b50505050565b600060028204905060018216806134f957607f821691505b6020821081141561350d5761350c61361c565b5b50919050565b61351c8261367a565b810181811067ffffffffffffffff8211171561353b5761353a61364b565b5b80604052505050565b600061354f8261344d565b91507fffffffffffffffffffffffffffffffffffffffffffffffffffffffffffffffff821415613582576135816135be565b5b600182019050919050565b60006135988261344d565b91506135a38361344d565b9250826135b3576135b26135ed565b5b828206905092915050565b7f4e487b7100000000000000000000000000000000000000000000000000000000600052601160045260246000fd5b7f4e487b7100000000000000000000000000000000000000000000000000000000600052601260045260246000fd5b7f4e487b7100000000000000000000000000000000000000000000000000000000600052602260045260246000fd5b7f4e487b7100000000000000000000000000000000000000000000000000000000600052604160045260246000fd5b6000601f19601f8301169050919050565b7f726174696f73206e65656420746f20657175616c203130300000000000000000600082015250565b7f4f776e61626c653a206e6577206f776e657220697320746865207a65726f206160008201527f6464726573730000000000000000000000000000000000000000000000000000602082015250565b7f6465706f7369742074696d65206d75737420626520706f736974697665000000600082015250565b7f6f6e6c79207374726174656779206f776e65722063616e2066756e6400000000600082015250565b7f726174696f73206c656e67746820697320300000000000000000000000000000600082015250565b7f737472617420636f6e7461696e73206e6f7420616c6c6f77656420746f6b656e600082015250565b7f4f776e61626c653a2063616c6c6572206973206e6f7420746865206f776e6572600082015250565b7f696e737566662066756e64730000000000000000000000000000000000000000600082015250565b7f7472616e73666572206661696c65640000000000000000000000000000000000600082015250565b7f4d7573742070617373206e6f6e20302045544820616d6f756e74000000000000600082015250565b7f74696d657374616d70206572726f720000000000000000000000000000000000600082015250565b61387d81613400565b811461388857600080fd5b50565b61389481613412565b811461389f57600080fd5b50565b6138ab8161344d565b81146138b657600080fd5b5056fea2646970667358221220f82fac9a78c20fd8a47bcdf8b27b03644292073791a367431403ca56f361d24e64736f6c63430008040033",
  "linkReferences": {},
  "deployedLinkReferences": {}
}